{
  "abi": [
    {
      "inputs": [
        {
          "internalType": "string",
          "name": "_name",
          "type": "string"
        }
      ],
      "stateMutability": "nonpayable",
      "type": "constructor"
    },
    {
      "anonymous": false,
      "inputs": [
        {
          "indexed": false,
          "internalType": "uint256",
          "name": "id",
          "type": "uint256"
        },
        {
          "indexed": false,
          "internalType": "string",
          "name": "title",
          "type": "string"
        },
        {
          "indexed": false,
          "internalType": "string",
          "name": "hash",
          "type": "string"
        }
      ],
      "name": "PostCreated",
      "type": "event"
    },
    {
      "anonymous": false,
      "inputs": [
        {
          "indexed": false,
          "internalType": "uint256",
          "name": "id",
          "type": "uint256"
        },
        {
          "indexed": false,
          "internalType": "string",
          "name": "title",
          "type": "string"
        },
        {
          "indexed": false,
          "internalType": "string",
          "name": "hash",
          "type": "string"
        },
        {
          "indexed": false,
          "internalType": "bool",
          "name": "published",
          "type": "bool"
        }
      ],
      "name": "PostUpdated",
      "type": "event"
    },
    {
      "inputs": [
        {
          "internalType": "string",
          "name": "title",
          "type": "string"
        },
        {
          "internalType": "string",
          "name": "hash",
          "type": "string"
        }
      ],
      "name": "createPost",
      "outputs": [],
      "stateMutability": "nonpayable",
      "type": "function"
    },
    {
      "inputs": [
        {
          "internalType": "string",
          "name": "hash",
          "type": "string"
        }
      ],
      "name": "fetchPost",
      "outputs": [
        {
          "components": [
            {
              "internalType": "uint256",
              "name": "id",
              "type": "uint256"
            },
            {
              "internalType": "string",
              "name": "title",
              "type": "string"
            },
            {
              "internalType": "string",
              "name": "content",
              "type": "string"
            },
            {
              "internalType": "bool",
              "name": "published",
              "type": "bool"
            }
          ],
          "internalType": "struct Blog.Post",
          "name": "",
          "type": "tuple"
        }
      ],
      "stateMutability": "view",
      "type": "function"
    },
    {
      "inputs": [],
      "name": "fetchPosts",
      "outputs": [
        {
          "components": [
            {
              "internalType": "uint256",
              "name": "id",
              "type": "uint256"
            },
            {
              "internalType": "string",
              "name": "title",
              "type": "string"
            },
            {
              "internalType": "string",
              "name": "content",
              "type": "string"
            },
            {
              "internalType": "bool",
              "name": "published",
              "type": "bool"
            }
          ],
          "internalType": "struct Blog.Post[]",
          "name": "",
          "type": "tuple[]"
        }
      ],
      "stateMutability": "view",
      "type": "function"
    },
    {
      "inputs": [],
      "name": "name",
      "outputs": [
        {
          "internalType": "string",
          "name": "",
          "type": "string"
        }
      ],
      "stateMutability": "view",
      "type": "function"
    },
    {
      "inputs": [],
      "name": "owner",
      "outputs": [
        {
          "internalType": "address",
          "name": "",
          "type": "address"
        }
      ],
      "stateMutability": "view",
      "type": "function"
    },
    {
      "inputs": [
        {
          "internalType": "address",
          "name": "newOwner",
          "type": "address"
        }
      ],
      "name": "transferOwnership",
      "outputs": [],
      "stateMutability": "nonpayable",
      "type": "function"
    },
    {
      "inputs": [
        {
          "internalType": "string",
          "name": "_name",
          "type": "string"
        }
      ],
      "name": "updateName",
      "outputs": [],
      "stateMutability": "nonpayable",
      "type": "function"
    },
    {
      "inputs": [
        {
          "internalType": "uint256",
          "name": "postId",
          "type": "uint256"
        },
        {
          "internalType": "string",
          "name": "title",
          "type": "string"
        },
        {
          "internalType": "string",
          "name": "hash",
          "type": "string"
        },
        {
          "internalType": "bool",
          "name": "published",
          "type": "bool"
        }
      ],
      "name": "updatePost",
      "outputs": [],
      "stateMutability": "nonpayable",
      "type": "function"
    }
  ],
  "bytecode": {
    "object": "0x60806040523480156200001157600080fd5b506040516200119e3803806200119e833981016040819052620000349162000072565b6000620000428282620001d6565b5050600180546001600160a01b03191633179055620002a2565b634e487b7160e01b600052604160045260246000fd5b600060208083850312156200008657600080fd5b82516001600160401b03808211156200009e57600080fd5b818501915085601f830112620000b357600080fd5b815181811115620000c857620000c86200005c565b604051601f8201601f19908116603f01168101908382118183101715620000f357620000f36200005c565b8160405282815288868487010111156200010c57600080fd5b600093505b8284101562000130578484018601518185018701529285019262000111565b600086848301015280965050505050505092915050565b600181811c908216806200015c57607f821691505b6020821081036200017d57634e487b7160e01b600052602260045260246000fd5b50919050565b601f821115620001d157600081815260208120601f850160051c81016020861015620001ac5750805b601f850160051c820191505b81811015620001cd57828155600101620001b8565b5050505b505050565b81516001600160401b03811115620001f257620001f26200005c565b6200020a8162000203845462000147565b8462000183565b602080601f831160018114620002425760008415620002295750858301515b600019600386901b1c1916600185901b178555620001cd565b600085815260208120601f198616915b82811015620002735788860151825594840194600190910190840162000252565b5085821015620002925787850151600019600388901b60f8161c191681555b5050505050600190811b01905550565b610eec80620002b26000396000f3fe608060405234801561001057600080fd5b50600436106100885760003560e01c80638da5cb5b1161005b5780638da5cb5b146100f3578063abaddd7f1461011e578063cd349fe914610133578063f2fde38b1461014657600080fd5b806306fdde031461008d578063392338f5146100ab57806344828659146100c057806384da92a7146100e0575b600080fd5b610095610159565b6040516100a291906108d2565b60405180910390f35b6100be6100b936600461098f565b6101e7565b005b6100d36100ce3660046109f3565b610302565b6040516100a29190610a81565b6100be6100ee3660046109f3565b61049d565b600154610106906001600160a01b031681565b6040516001600160a01b0390911681526020016100a2565b6101266104ad565b6040516100a29190610a94565b6100be610141366004610af6565b6106e6565b6100be610154366004610b7b565b610849565b6000805461016690610ba4565b80601f016020809104026020016040519081016040528092919081815260200182805461019290610ba4565b80156101df5780601f106101b4576101008083540402835291602001916101df565b820191906000526020600020905b8154815290600101906020018083116101c257829003601f168201915b505050505081565b6002546101f5906001610bf4565b60028190556000818152600360205260409020908155600181016102198482610c5c565b5060038101805460ff19166001179055600281016102378382610c5c565b506002546000908152600560205260409081902080546001600160a01b0319163317905551819060049061026c908590610d1c565b9081526040519081900360200190208154815560018082019061029190840182610d38565b506002818101906102a490840182610d38565b506003918201549101805460ff191660ff90921615159190911790556002546040517fe6851f0b99a9d86e5d68a97f65218980851216ce297f789c6b6b7e82ca1d90c8916102f59186908690610e13565b60405180910390a1505050565b61032f60405180608001604052806000815260200160608152602001606081526020016000151581525090565b60048260405161033f9190610d1c565b90815260200160405180910390206040518060800160405290816000820154815260200160018201805461037290610ba4565b80601f016020809104026020016040519081016040528092919081815260200182805461039e90610ba4565b80156103eb5780601f106103c0576101008083540402835291602001916103eb565b820191906000526020600020905b8154815290600101906020018083116103ce57829003601f168201915b5050505050815260200160028201805461040490610ba4565b80601f016020809104026020016040519081016040528092919081815260200182805461043090610ba4565b801561047d5780601f106104525761010080835404028352916020019161047d565b820191906000526020600020905b81548152906001019060200180831161046057829003601f168201915b50505091835250506003919091015460ff16151560209091015292915050565b60006104a98282610c5c565b5050565b60025460609060008167ffffffffffffffff8111156104ce576104ce6108ec565b60405190808252806020026020018201604052801561052c57816020015b61051960405180608001604052806000815260200160608152602001606081526020016000151581525090565b8152602001906001900390816104ec5790505b50905060005b828110156106df576000610547826001610bf4565b90506000600360008381526020019081526020016000209050806040518060800160405290816000820154815260200160018201805461058690610ba4565b80601f01602080910402602001604051908101604052809291908181526020018280546105b290610ba4565b80156105ff5780601f106105d4576101008083540402835291602001916105ff565b820191906000526020600020905b8154815290600101906020018083116105e257829003601f168201915b5050505050815260200160028201805461061890610ba4565b80601f016020809104026020016040519081016040528092919081815260200182805461064490610ba4565b80156106915780601f1061066657610100808354040283529160200191610691565b820191906000526020600020905b81548152906001019060200180831161067457829003601f168201915b50505091835250506003919091015460ff16151560209091015284518590859081106106bf576106bf610e48565b6020026020010181905250505080806106d790610e5e565b915050610532565b5092915050565b60008481526005602052604090205484906001600160a01b0316331461070b57600080fd5b6000858152600360205260409020600181016107278682610c5c565b5060038101805460ff1916841515179055600281016107468582610c5c565b50600086815260036020526040902081548155819060018082019061076d90840182610d38565b5060028181019061078090840182610d38565b506003918201549101805460ff191660ff909216151591909117905560405181906004906107af908790610d1c565b908152604051908190036020019020815481556001808201906107d490840182610d38565b506002818101906107e790840182610d38565b506003918201549101805460ff191660ff909216151591909117905580546040517f9f8eb93fc073102bbd3072664634ab200707a4f11d94aace9cc8d0e4d019eff59161083991889088908890610e77565b60405180910390a1505050505050565b6001546001600160a01b0316331461086057600080fd5b600180546001600160a01b0319166001600160a01b0392909216919091179055565b60005b8381101561089d578181015183820152602001610885565b50506000910152565b600081518084526108be816020860160208601610882565b601f01601f19169290920160200192915050565b6020815260006108e560208301846108a6565b9392505050565b634e487b7160e01b600052604160045260246000fd5b600082601f83011261091357600080fd5b813567ffffffffffffffff8082111561092e5761092e6108ec565b604051601f8301601f19908116603f01168101908282118183101715610956576109566108ec565b8160405283815286602085880101111561096f57600080fd5b836020870160208301376000602085830101528094505050505092915050565b600080604083850312156109a257600080fd5b823567ffffffffffffffff808211156109ba57600080fd5b6109c686838701610902565b935060208501359150808211156109dc57600080fd5b506109e985828601610902565b9150509250929050565b600060208284031215610a0557600080fd5b813567ffffffffffffffff811115610a1c57600080fd5b610a2884828501610902565b949350505050565b805182526000602082015160806020850152610a4f60808501826108a6565b905060408301518482036040860152610a6882826108a6565b9150506060830151151560608501528091505092915050565b6020815260006108e56020830184610a30565b6000602080830181845280855180835260408601915060408160051b870101925083870160005b82811015610ae957603f19888603018452610ad7858351610a30565b94509285019290850190600101610abb565b5092979650505050505050565b60008060008060808587031215610b0c57600080fd5b84359350602085013567ffffffffffffffff80821115610b2b57600080fd5b610b3788838901610902565b94506040870135915080821115610b4d57600080fd5b50610b5a87828801610902565b92505060608501358015158114610b7057600080fd5b939692955090935050565b600060208284031215610b8d57600080fd5b81356001600160a01b03811681146108e557600080fd5b600181811c90821680610bb857607f821691505b602082108103610bd857634e487b7160e01b600052602260045260246000fd5b50919050565b634e487b7160e01b600052601160045260246000fd5b80820180821115610c0757610c07610bde565b92915050565b601f821115610c5757600081815260208120601f850160051c81016020861015610c345750805b601f850160051c820191505b81811015610c5357828155600101610c40565b5050505b505050565b815167ffffffffffffffff811115610c7657610c766108ec565b610c8a81610c848454610ba4565b84610c0d565b602080601f831160018114610cbf5760008415610ca75750858301515b600019600386901b1c1916600185901b178555610c53565b600085815260208120601f198616915b82811015610cee57888601518255948401946001909101908401610ccf565b5085821015610d0c5787850151600019600388901b60f8161c191681555b5050505050600190811b01905550565b60008251610d2e818460208701610882565b9190910192915050565b818103610d43575050565b610d4d8254610ba4565b67ffffffffffffffff811115610d6557610d656108ec565b610d7381610c848454610ba4565b6000601f821160018114610da75760008315610d8f5750848201545b600019600385901b1c1916600184901b178455610e0c565b600085815260209020601f19841690600086815260209020845b83811015610de15782860154825560019586019590910190602001610dc1565b5085831015610dff5781850154600019600388901b60f8161c191681555b50505060018360011b0184555b5050505050565b838152606060208201526000610e2c60608301856108a6565b8281036040840152610e3e81856108a6565b9695505050505050565b634e487b7160e01b600052603260045260246000fd5b600060018201610e7057610e70610bde565b5060010190565b848152608060208201526000610e9060808301866108a6565b8281036040840152610ea281866108a6565b91505082151560608301529594505050505056fea2646970667358221220e2cd42054e60baf64cc0062acdefd07ab7004fd960e71252803f40d5a75fa8ff64736f6c63430008110033",
    "linkReferences": {}
  },
  "methodIdentifiers": {
    "createPost(string,string)": "392338f5",
    "fetchPost(string)": "44828659",
    "fetchPosts()": "abaddd7f",
    "name()": "06fdde03",
    "owner()": "8da5cb5b",
    "transferOwnership(address)": "f2fde38b",
    "updateName(string)": "84da92a7",
    "updatePost(uint256,string,string,bool)": "cd349fe9"
  },
  "id": 16
}